{
  "transactions": [
    {
      "hash": "0xc98541ede15d786e421597c896c4af04220e4ab621deffe751ab3c4eed90c724",
      "transactionType": "CALL",
      "contractName": null,
      "contractAddress": "0x779877a7b0d9e8603169ddbd7836e478b4624789",
      "function": "transferAndCall(address,uint256,bytes)",
      "arguments": [
        "0x9DdfaCa8183c41ad55329BdeeD9F6A8d53168B1B",
        "3000000000000000000",
        "0xf581b7c7d00f35b49d50bca7759f977302e36c42108f01b33c93333789322975"
      ],
      "transaction": {
        "from": "0x2cfa9dc460b07ea03961874636dfac7bddc9aab8",
        "to": "0x779877a7b0d9e8603169ddbd7836e478b4624789",
        "gas": "0x1c1ff",
        "value": "0x0",
        "input": "0x4000aea00000000000000000000000009ddfaca8183c41ad55329bdeed9f6a8d53168b1b00000000000000000000000000000000000000000000000029a2241af62c000000000000000000000000000000000000000000000000000000000000000000600000000000000000000000000000000000000000000000000000000000000020f581b7c7d00f35b49d50bca7759f977302e36c42108f01b33c93333789322975",
        "nonce": "0x9",
        "chainId": "0xaa36a7"
      },
      "additionalContracts": [],
      "isFixedGasLimit": false
    }
  ],
  "receipts": [
    {
      "status": "0x1",
      "cumulativeGasUsed": "0x4734ae",
      "logs": [
        {
          "address": "0x779877a7b0d9e8603169ddbd7836e478b4624789",
          "topics": [
            "0xddf252ad1be2c89b69c2b068fc378daa952ba7f163c4a11628f55a4df523b3ef",
            "0x0000000000000000000000002cfa9dc460b07ea03961874636dfac7bddc9aab8",
            "0x0000000000000000000000009ddfaca8183c41ad55329bdeed9f6a8d53168b1b"
          ],
          "data": "0x00000000000000000000000000000000000000000000000029a2241af62c0000",
          "blockHash": "0x58077e7d66e315670d72af20f662a96adf7d367de1a78207a0cc32d081a25ed4",
          "blockNumber": "0x6a92f5",
          "transactionHash": "0xc98541ede15d786e421597c896c4af04220e4ab621deffe751ab3c4eed90c724",
          "transactionIndex": "0x2e",
          "logIndex": "0x41",
          "removed": false
        },
        {
          "address": "0x779877a7b0d9e8603169ddbd7836e478b4624789",
          "topics": [
            "0xe19260aff97b920c7df27010903aeb9c8d2be5d310a2c67824cf3f15396e4c16",
            "0x0000000000000000000000002cfa9dc460b07ea03961874636dfac7bddc9aab8",
            "0x0000000000000000000000009ddfaca8183c41ad55329bdeed9f6a8d53168b1b"
          ],
          "data": "0x00000000000000000000000000000000000000000000000029a2241af62c000000000000000000000000000000000000000000000000000000000000000000400000000000000000000000000000000000000000000000000000000000000020f581b7c7d00f35b49d50bca7759f977302e36c42108f01b33c93333789322975",
          "blockHash": "0x58077e7d66e315670d72af20f662a96adf7d367de1a78207a0cc32d081a25ed4",
          "blockNumber": "0x6a92f5",
          "transactionHash": "0xc98541ede15d786e421597c896c4af04220e4ab621deffe751ab3c4eed90c724",
          "transactionIndex": "0x2e",
          "logIndex": "0x42",
          "removed": false
        },
        {
          "address": "0x9ddfaca8183c41ad55329bdeed9f6a8d53168b1b",
          "topics": [
            "0x1ced9348ff549fceab2ac57cd3a9de38edaaab274b725ee82c23e8fc8c4eec7a",
            "0xf581b7c7d00f35b49d50bca7759f977302e36c42108f01b33c93333789322975"
          ],
          "data": "0x000000000000000000000000000000000000000000000000000000000000000000000000000000000000000000000000000000000000000029a2241af62c0000",
          "blockHash": "0x58077e7d66e315670d72af20f662a96adf7d367de1a78207a0cc32d081a25ed4",
          "blockNumber": "0x6a92f5",
          "transactionHash": "0xc98541ede15d786e421597c896c4af04220e4ab621deffe751ab3c4eed90c724",
          "transactionIndex": "0x2e",
          "logIndex": "0x43",
          "removed": false
        }
      ],
      "logsBloom": "0x00000004000000000000000000000000000000000020000000000000020000000000000000000000000000000000000000000000000000000000000000000000000000000000000000000008000000000000000000000400000020000020000008000000000000000000000000000000000000000000000000000010000040000008000000000000000000010000800000000020000000000000000000000000000000000000000000000000010000000000000000400000000804000000000000000002000000000000000000000000000000000000000100000000000000000010000200000000800000000000000000000000000200000000000000000000",
      "type": "0x2",
      "transactionHash": "0xc98541ede15d786e421597c896c4af04220e4ab621deffe751ab3c4eed90c724",
      "transactionIndex": "0x2e",
      "blockHash": "0x58077e7d66e315670d72af20f662a96adf7d367de1a78207a0cc32d081a25ed4",
      "blockNumber": "0x6a92f5",
      "gasUsed": "0x133b1",
      "effectiveGasPrice": "0xb97d7590",
      "from": "0x2cfa9dc460b07ea03961874636dfac7bddc9aab8",
      "to": "0x779877a7b0d9e8603169ddbd7836e478b4624789",
      "contractAddress": null
    }
  ],
  "libraries": [],
  "pending": [],
  "returns": {},
  "timestamp": 1730411148,
  "chain": 11155111,
  "commit": "16347c1"
}